:100000000C942A000C9447000C9447000C94470071
:100010000C9447000C9447000C9447000C94470044
:100020000C9447000C9447000C9447000C94470034
:100030000C9447000C9447000C9447000C94470024
:100040000C9447000C9447000C9447000C94470014
:100050000C94470011241FBECFE5D8E0DEBFCDBF12
:1000600010E0A0E6B0E0ECE0F6E002C005900D92F2
:10007000A23BB107D9F720E0A2EBB0E001C01D928E
:10008000A33BB207E1F70E94C1020C9404030C9455
:100090000000813041F028F0823039F0833039F0AF
:1000A00008956BBB089568BB089565BB089562BB56
:1000B0000895982F9770869586958695813021F1C1
:1000C00030F08230F1F1833009F458C008956111A5
:1000D0000EC04BB321E030E0B90102C0660F771FBC
:1000E0009A95E2F7CB01809584238BBB08954BB39F
:1000F00021E030E0B90102C0660F771F9A95E2F760
:10010000CB01842B8BBB089561110EC048B321E055
:1001100030E0B90102C0660F771F9A95E2F7CB0174
:100120008095842388BB089548B321E030E0B9016D
:1001300002C0660F771F9A95E2F7CB01842B88BB2C
:10014000089561110EC045B321E030E0B90102C04D
:10015000660F771F9A95E2F7CB018095842385BBC4
:10016000089545B321E030E0B90102C0660F771F62
:100170009A95E2F7CB01842B85BB089561110EC0DF
:1001800042B321E030E0B90102C0660F771F9A95B3
:10019000E2F7CB018095842382BB089542B321E02E
:1001A00030E0B90102C0660F771F9A95E2F7CB01E4
:1001B000842B82BB0895282F277086958695869577
:1001C000813081F028F08230B9F08330F9F027C017
:1001D00089B390E002C0959587952A95E2F7982F0C
:1001E00091701DC086B390E002C0959587952A95C1
:1001F000E2F7982F917013C083B390E002C09595F9
:1002000087952A95E2F7982F917009C080B390E006
:1002100002C0959587952A95E2F7982F9170892FBE
:100220000895E2E6F0E080E041E050E0382F3770DA
:10023000982F96959695969520812130A1F591302D
:1002400089F028F09230C9F0933011F163C09AB36D
:10025000BA0102C0660F771F3A95E2F79B01292B7E
:100260002ABB58C097B3BA0102C0660F771F3A95F0
:10027000E2F79B01292B27BB4DC094B3BA0102C002
:10028000660F771F3A95E2F79B01292B24BB42C0EA
:1002900091B3BA0102C0660F771F3A95E2F79B014E
:1002A000292B21BB37C0913091F028F09230D9F042
:1002B000933029F12FC02AB3BA0102C0660F771F0D
:1002C0003A95E2F7962F909592239ABB23C027B3D5
:1002D000BA0102C0660F771F3A95E2F7962F909504
:1002E000922397BB17C024B3BA0102C0660F771FD1
:1002F0003A95E2F7962F9095922394BB0BC021B3C9
:10030000BA0102C0660F771F3A95E2F7962F9095D3
:10031000922391BB8F5F3296803209F087CF089588
:10032000CF93C82F83E10E94DB00811105C0CC0F61
:10033000CC0FC093600020C084E10E94DB008111DB
:1003400006C0CC0FCC0FCF5FC093600015C085E115
:100350000E94DB00811106C0CC0FCC0FCE5FC09392
:1003600060000AC086E10E94DB00811105C0CC0F4D
:10037000CC0FCD5FC0936000CF9108958FEF809335
:10038000600060E08DE00E94590061E08EE00E9414
:10039000590061E08FE00E94590061E080E00E9416
:1003A000590080E00E94900161E08DE00E945900B8
:1003B00060E08EE00E94590061E08FE00E945900E9
:1003C00061E080E00E94590081E00E94900161E0BC
:1003D0008DE00E94590061E08EE00E94590060E0CB
:1003E0008FE00E94590061E080E00E94590082E0A5
:1003F0000E94900161E08DE00E94590061E08EE072
:100400000E94590061E08FE00E94590060E080E0A6
:100410000E94590083E00E949001809160008F3F0C
:1004200029F0E82FF0E0EE55FF4F80810895CF933B
:10043000C82F6BB36F70807F682B80E00E944900EB
:1004400060E089E00E94590061E08BE00E94590061
:1004500025E32A95F1F7000060E08BE00E94590047
:100460008FE39FE10197F1F700C000006BB36F705D
:1004700020E1C29FC0011124682B80E00E94490046
:1004800061E08BE00E94590085E08A95F1F7000059
:1004900060E08BE00E9459008FE39FE10197F1F744
:1004A00000C00000CF91089560E08AE00E945900EA
:1004B0002FEF89EF90E0215080409040E1F700C09D
:1004C000000083E30E94170282E30E94170288E281
:1004D0000E9417028CE00E94170286E00E94170219
:1004E00081E00E9417020895CF93C82F6BB36F70FD
:1004F000807F682B80E00E94490061E089E00E94D3
:10050000590061E08BE00E94590025E02A95F1F73F
:10051000000060E08BE00E9459008FE39FE10197AB
:10052000F1F700C000006BB36F7020E1C29FC00103
:100530001124682B80E00E94490061E08BE00E945A
:10054000590085E08A95F1F7000060E08BE00E9499
:1005500059009FEF29EF80E0915020408040E1F763
:1005600000C00000CF91089581E00E9417028FE340
:100570009FE10197F1F700C0000080E80E94170298
:1005800008950E94110168E782E00E9449000E94DC
:1005900054020E94B402D0E8CFEF0E94BE018093C3
:1005A000B20083EC99E00197F1F700C00000809160
:1005B000B2008F3FC1F00E947402C093B20087EA7C
:1005C00091E60197F1F700C0000061E082E10E942E
:1005D00059009FE32DE083E0915020408040E1F7F7
:1005E00000C00000DACF809161008039B0F2D09372
:1005F000610060E082E10E94590087EA91E601977C
:0C060000F1F700C00000C9CFF894FFCF54
:10060C00FF80010001000100010001000100010058
:10061C0001000100010001000100010001000100C6
:10062C0001000100010001000000000000000000BA
:10063C0001000100010001000100010001000100A6
:10064C0001003738392F3435362A3132332D4330C7
:02065C003D2B34
:00000001FF
