:100000000C943E000C9448000C9448000C9448005A
:100010000C9448000C9448000C9448000C94480040
:100020000C9448000C9448000C9448000C94480030
:100030000C9448000C944A000C9448000C9448001E
:100040000C9448000C9448000C9448000C94480010
:100050000C94480082009B0070009B007D009B0078
:100060009B009B009B009B008D009B009B009B00C6
:100070009B009B00870093009B00620011241FBE21
:10008000CFE5D8E0DEBFCDBF0E94A6000C94CB0028
:100090000C9400001F920F920FB60F9211248F93B1
:1000A0009F93AF93BF93EF93FF93ECB18E2F90E0AC
:1000B000FC01E254F109E431F105E8F5E65DFF4F9A
:1000C0000C94C5008CB78CB7865F8CBFC598C79A57
:1000D0008BE792E90197F1F700C00000C7982BC0A9
:1000E0008CB78CB78A508CBFC69A8BE792E9019780
:1000F000F1F700C00000C6981EC0C198D998C09AF8
:10010000D89A19C0C098D898C19AD99A14C0C098E2
:10011000C198D898D998C09A0EC0C098C198D8985C
:10012000D998D89A08C088B3836088BB8BB38360A2
:100130008BBB1CBEC59AFF91EF91BF91AF919F9170
:100140008F910F900FBE0F901F90189587B38F6EF1
:1001500087BB8AB383608ABB18BA1BBA88E483BFA3
:1001600083B7806283BF83B7826083BF12BE1CBE29
:10017000549A8EE880BD80E380BD85E089B910BCCB
:10018000579A789480E090E00895EE0FFF1F059055
:0A019000F491E02D0994F894FFCFDC
:00000001FF
