S016000055534152542042617564726174652E7372656337
S11300000C942A000C9434000C9434000C943400A6
S11300100C9434000C9434000C9434000C9434008C
S11300200C9434000C9434000C9434000C9434007C
S11300300C9434000C9434000C9434000C9434006C
S11300400C9434000C9434000C9434000C9434005C
S11300500C94340011241FBECFE5D8E0DEBFCDBF21
S11300600E9436000C9441000C9400008FE189B981
S113007088E18AB986E880BD8DE45D9BFECF8CB9AA
S1090080FCCFF894FFCF51
S9030000FC
