:100000000C942A000C9434000C9434000C943400AA
:100010000C9434000C9434000C9434000C94340090
:100020000C9434000C9434000C9434000C94340080
:100030000C9434000C9434000C9434000C94340070
:100040000C9434000C9434000C9434000C94340060
:100050000C94340011241FBECFE5D8E0DEBFCDBF25
:100060000E943B000C94A7000C9400008FB9779B72
:10007000FECF8FB108958AB387608ABB8D9ABE9AEE
:10008000BC986E9AD0E2C0E481E10E9436002FEF66
:1000900033ED90E3215030409040E1F700C0000084
:1000A0008A3A59F4D2BB2FEF33E284EF215030402B
:1000B0008040E1F700C0000018C081E00E943600D7
:1000C0009FEF23ED30E3915020403040E1F700C036
:1000D000000082B38D2782BB8FEF93E224EF815023
:1000E00090402040E1F700C0000082E20E9436000C
:1000F0003FEF93ED20E3315090402040E1F700C006
:1001000000008B3B59F4C2BB3FEF83E294EF3150C8
:1001100080409040E1F700C00000B6CF82E00E942E
:1001200036002FEF33ED80E3215030408040E1F77F
:1001300000C0000082B38C2782BB9FEF23E234EF24
:10014000915020403040E1F700C000009DCFF8946E
:02015000FFCFDF
:00000001FF
