:100000000C942A000C9447000C9447000C94470071
:100010000C9447000C9447000C9447000C94470044
:100020000C9447000C9447000C9447000C94470034
:100030000C9447000C9447000C9447000C94470024
:100040000C9447000C9447000C9447000C94470014
:100050000C94470011241FBECFE5D8E0DEBFCDBF12
:1000600010E0A0E6B0E0EAE0F4E002C005900D92F6
:10007000AA36B107D9F720E0AAE6B0E001C01D9288
:10008000AA36B207E1F70E9481000C9403020C9497
:1000900000008A9880E48BBF85B78E7F85BF85B7C7
:1000A000826085BF78940895CF93DF93CDB7DEB794
:1000B0002A970FB6F894DEBF0FBECDBF88B3866017
:1000C00088BB0E9454008AE0E0E6F0E0DE01119671
:1000D00001900D928A95E1F7FE0131969E01255F10
:1000E0003F4F81918295807F8BBBE217F307C9F761
:1000F0002A960FB6F894DEBF0FBECDBFDF91CF9129
:100100000895CF93DF93CDB7DEB72A970FB6F89453
:10011000DEBF0FBECDBF0E9449008AB3806F8ABB8D
:1001200087B3866087BB8E01055F1F4F2E012AE0D3
:10013000420E511C3E0189E0680E711C4E0198E090
:10014000890E911C5E0127E0A20EB11C6E0186E0B3
:10015000C80ED11C7E0195E0E90EF11C829B2AC0DD
:100160002FEF86E791E0215080409040E1F700C0FA
:10017000000088B3866088BB0E9454008AE0E0E6F5
:10018000F0E0DE01119601900D928A95E1F7FE01F3
:10019000319681918295807F8BBB2FEF81EE94E029
:1001A000215080409040E1F700C000000E171F076B
:1001B00081F7D4CF829B17C02FEF86E791E02150C3
:1001C00080409040E1F700C000008AE0E0E6F0E007
:1001D000DE01119601900D928A95E1F78981829551
:1001E000807F8BBBBBCF829B1BC02FEF86E791E04C
:1001F000215080409040E1F700C000008AE0E0E636
:10020000F0E0DE01119601900D928A95E1F7898167
:100210008295807F8BBB8A818295807F8BBB9ECFAE
:10022000829B1FC02FEF86E791E0215080409040D5
:10023000E1F700C000008AE0E0E6F0E0DE011196A0
:1002400001900D928A95E1F789818295807F8BBB21
:100250008A818295807F8BBB8B818295807F8BBBCF
:100260007DCF829B1CC02FEF86E791E0215080401C
:100270009040E1F700C000008AE0E0E6F0E0DE0137
:10028000119601900D928A95E1F7FE0131968191C8
:100290008295807F8BBBEE16FF06C9F75FCF829BEE
:1002A0001CC02FEF86E791E0215080409040E1F79D
:1002B00000C000008AE0E0E6F0E0DE011196019067
:1002C0000D928A95E1F7FE01319681918295807FAA
:1002D0008BBBCE16DF06C9F741CF829B1CC02FEF28
:1002E00086E791E0215080409040E1F700C0000097
:1002F0008AE0E0E6F0E0DE01119601900D928A9529
:10030000E1F7FE01319681918295807F8BBBAE161D
:10031000BF06C9F723CF829B1CC02FEF86E791E071
:10032000215080409040E1F700C000008AE0E0E604
:10033000F0E0DE01119601900D928A95E1F7FE0141
:10034000319681918295807F8BBB8E169F06C9F76F
:1003500005CF829B1CC02FEF86E791E021508040A3
:100360009040E1F700C000008AE0E0E6F0E0DE0146
:10037000119601900D928A95E1F7FE0131968191D7
:100380008295807F8BBB6E167F06C9F7E7CE829B76
:100390001CC02FEF86E791E0215080409040E1F7AC
:1003A00000C000008AE0E0E6F0E0DE011196019076
:1003B0000D928A95E1F7FE01319681918295807FB9
:1003C0008BBB4E165F06C9F7C9CE829BC7CE2FEFF7
:1003D00086E791E0215080409040E1F700C00000A6
:1003E0008AE0E0E6F0E0DE01119601900D928A9538
:1003F000E1F7FE01319681918295807F8BBB0E17CC
:0A0400001F07C9F7ABCEF894FFCF39
:0A040A0000010203040506070809BB
:00000001FF
