S01E00004763634170706C69636174696F6E2047726F757020362E7372656302
S11300000C942A000C9434000C9434000C943400A6
S11300100C9434000C9434000C9434000C9434008C
S11300200C9434000C9434000C9434000C9434007C
S11300300C9434000C9434000C9434000C9434006C
S11300400C9434000C9434000C9434000C9434005C
S11300500C94340011241FBECFE5D8E0DEBFCDBF21
S11300600E9436000C94A3000C940000B898BC982D
S11300708A98D39AD29AA29AA79A8B9AB09B14C0C0
S11300802FEF86E791E0215080409040E1F700C0D7
S11300900000DB9A2FEF8DE399E4215080409040DB
S11300A0E1F700C00000EACFB49B14C02FEF86E74D
S11300B091E0215080409040E1F700C00000DA9ABE
S11300C02FEF87EA91E6215080409040E1F700C08D
S11300D00000D4CF829B28C02FEF86E791E0215007
S11300E080409040E1F700C00000AA9A2FEF89E613
S11300F098E1215080409040E1F700C00000AF9AA1
S11301002FEF89E698E1215080409040E1F700C04C
S11301100000939A2FEF89E698E1215080409040A7
S1130120E1F700C00000AACFDB98DA98AA98AF984C
S113013093982FEF81EE94E0215080409040E1F7B6
S10D014000C000009BCFF894FFCF2D
S9030000FC
