:100000000C942A000C943C000C943C000C943C0092
:100010000C943C000C943C000C943C000C943C0070
:100020000C943C000C943C000C943C000C948B0011
:100030000C943C000C943C000C943C000C943C0050
:100040000C943C000C943C000C943C000C943C0040
:100050000C943C0011241FBECFE5D8E0DEBFCDBF1D
:1000600020E0A0E6B0E001C01D92A236B207E1F7A1
:100070000E943E000C94A2000C940000CF93DF93EA
:1000800000D0CDB7DEB71A82198283E083BF81E04A
:1000900089BF84E084BB88E081BBA79A789424E080
:1000A00038E089819A81893E934070F485B3822734
:1000B00085BB8FEF91EE44E0815090404040E1F7E6
:1000C00000C000001A82198289819A81813D97407F
:1000D00070F485B3805885BB8FEF92E547E081507F
:1000E00090404040E1F700C000001A8219828981E7
:1000F0009A81893B9B40A8F682B3832782BB8FEF0E
:1001000093EC49E0815090404040E1F700C000008E
:100110001A821982C6CF1F920F920FB60F92112426
:100120008F939F93809160009091610001969093CE
:100130006100809360009F918F910F900FBE0F9090
:080140001F901895F894FFCF01
:00000001FF
