S01700004763634170706C69636174696F6E312E737265635B
S11300000C942A000C9434000C9434000C943400A6
S11300100C9434000C9434000C9434000C9434008C
S11300200C9434000C9434000C9434000C9434007C
S11300300C9434000C9434000C9434000C9434006C
S11300400C9434000C9434000C9434000C9434005C
S11300500C94340011241FBECFE5D8E0DEBFCDBF21
S11300600E9436000C9475000C940000BB9A89E73A
S113007083BF9FE74EEF9CBF80E08CBF2FEF30E73C
S113008052E0215030405040E1F700C000008F5F43
S11300908F3F99F74CBF80E08CBF6FEF70E722E091
S11300A0615070402040E1F700C000008F5F8F3F37
S11300B099F72FEF30E09CBF5FEF60E772E051509B
S11300C060407040E1F700C000002150310999F709
S11300D08CBF2FEF30E752E0215030405040E1F721
S11100E000C000008150A1F7C6CFF894FFCFF6
S9030000FC
