S00F000074696D657220302E73726563A4
S11300000C942A000C943C000C943C000C943C008E
S11300100C943C000C943C000C943C000C943C006C
S11300200C943C000C943C000C943C000C947E001A
S11300300C943C000C943C000C943C000C943C004C
S11300400C943C000C943C000C943C000C943C003C
S11300500C943C0011241FBECFE5D8E0DEBFCDBF19
S113006020E0A0E6B0E001C01D92A236B207E1F79D
S11300700E943E000C9495000C94000083E083BF22
S113008081E089BF84E084BBA79A88E081BB78942F
S113009024E038E08091600090916100C29748F0BC
S11300A085B3822785BB8FE39CE90197F1F700C0F4
S11300B0000080916000909161008436910548F0C1
S11300C085B3805885BB8FE39CE90197F1F700C0A5
S11300D00000809160009091610086399105D0F212
S11300E082B3832782BB8FE39CE90197F1F700C0B9
S11300F000001092610010926000CCCF1F920F920A
S11301000FB60F9211248F939F938091600090916A
S11301106100019690936100809360009F918F919C
S11101200F900FBE0F901F901895F894FFCF0C
S9030000FC
