S00F000074696D657220302E73726563A4
S11300000C942A000C943C000C943C000C943C008E
S11300100C943C000C943C000C943C000C943C006C
S11300200C943C000C943C000C943C000C94850013
S11300300C943C000C943C000C943C000C943C004C
S11300400C943C000C943C000C943C000C943C003C
S11300500C943C0011241FBECFE5D8E0DEBFCDBF19
S113006020E0A0E6B0E001C01D92A236B207E1F79D
S11300700E943E000C949C000C940000CF93DF93EC
S113008000D0CDB7DEB71A82198283E083BF81E046
S113009089BF84E084BB88E081BBA79A789424E07C
S11300A038E089819A818536910558F485B3822791
S11300B085BB8FE39CE90197F1F700C000001A8229
S11300C0198289819A81893C910558F485B38058B5
S11300D085BB8FE39CE90197F1F700C000001A8209
S11300E0198289819A818D329140D8F682B383270F
S11300F082BB8FEF91EE44E0815090404040E1F7A5
S113010000C000001A821982CCCF1F920F920FB642
S11301100F9211248F939F938091600090916100BE
S1130120019690936100809360009F918F910F904E
S10F01300FBE0F901F901895F894FFCF9D
S9030000FC
