:100000000C942A000C943F000C943F000C943F0089
:100010000C943F000C943F000C943F000C943F0064
:100020000C943F000C943F000C943F000C943F0054
:100030000C943F000C9467000C943F000C943F001C
:100040000C943F000C943F000C943F000C943F0034
:100050000C943F0011241FBECFE5D8E0DEBFCDBF1A
:1000600010E0A0E6B0E0ECE7F1E002C005900D92F0
:10007000A638B107D9F70E94AB000C94BC000C94D1
:10008000000087E689B988E18AB986E880BD0895CD
:100090005D9BFECF8CB908950F931F93CF93FC0106
:1000A0008081882359F08F01C0E00E944800CF5F13
:1000B000F801EC0FF11D80818111F7CFCF911F91D5
:1000C0000F9108958FB9779BFECF8FB108951F923E
:1000D0000F920FB60F9211242F933F934F935F937C
:1000E0006F937F938F939F93AF93BF93EF93FF9300
:1000F0008CB18235F9F4A8988AEA0E946200A89A25
:100100002FEF33ED90E3215030409040E1F700C0F5
:100110000000813111F480E282BB80E690E00E9411
:100120004C002FEF33E284EF215030408040E1F764
:1001300000C00000FF91EF91BF91AF919F918F910F
:100140007F916F915F914F913F912F910F900FBED3
:100150000F901F9018950E944100789482E790E0DC
:100160000E944C002FEF87EA91E62150804090409A
:0C017000E1F700C00000F2CFF894FFCFD0
:10017C004C45445F315F524F4F4D5F315F4F4E0DD9
:10018C000A00534D4152545F484F4D455F4D414716
:06019C0045440D0A0000BD
:00000001FF
